{
  "transactions": [
    {
      "hash": "0xa6a6621b08b207e44aa8823faa2b7eb3344e327958150908e3092105a6c10990",
      "transactionType": "CREATE",
      "contractName": "ReputationTokens",
      "contractAddress": "0xFEe6635F43E1eeff88F0A6876Dc9153Fb128a81F",
      "function": null,
      "arguments": [
        "0xc689c800a7121b186208ea3b182fAb2671B337E7",
        "[0x31D7312587D9d868d420661f4C9D7F35B9C776db, 0xc689c800a7121b186208ea3b182fAb2671B337E7]"
      ],
      "transaction": {
        "type": "0x00",
        "from": "0x31d7312587d9d868d420661f4c9d7f35b9c776db",
        "gas": "0x2d740b",
        "value": "0x0",
        "data": "0x60a0604052600060809081526003906200001a9082620002b2565b503480156200002857600080fd5b5060405162002b5e38038062002b5e8339810160408190526200004b916200039b565b60408051602081019091526000815282906200006781620000f4565b506001600160a01b0381166200009757604051631e4fbdf760e01b81526000600482015260240160405180910390fd5b620000a28162000106565b5060005b8151811015620000eb57620000e16000801b838381518110620000cd57620000cd62000484565b60200260200101516200015860201b60201c565b50600101620000a6565b5050506200049a565b6002620001028282620002b2565b5050565b600680546001600160a01b038381166001600160a01b0319831681179093556040519116919082907f8be0079c531659141344cd1fd0a4f28419497f9722a3daafe3b4186f6b6457e090600090a35050565b60008281526005602090815260408083206001600160a01b038516845290915281205460ff16620002015760008381526005602090815260408083206001600160a01b03861684529091529020805460ff19166001179055620001b83390565b6001600160a01b0316826001600160a01b0316847f2f8788117e7eff1d82e926ec794901d17c78024a50270940304540a733656f0d60405160405180910390a450600162000205565b5060005b92915050565b634e487b7160e01b600052604160045260246000fd5b600181811c908216806200023657607f821691505b6020821081036200025757634e487b7160e01b600052602260045260246000fd5b50919050565b601f821115620002ad576000816000526020600020601f850160051c81016020861015620002885750805b601f850160051c820191505b81811015620002a95782815560010162000294565b5050505b505050565b81516001600160401b03811115620002ce57620002ce6200020b565b620002e681620002df845462000221565b846200025d565b602080601f8311600181146200031e5760008415620003055750858301515b600019600386901b1c1916600185901b178555620002a9565b600085815260208120601f198616915b828110156200034f578886015182559484019460019091019084016200032e565b50858210156200036e5787850151600019600388901b60f8161c191681555b5050505050600190811b01905550565b80516001600160a01b03811681146200039657600080fd5b919050565b60008060408385031215620003af57600080fd5b620003ba836200037e565b602084810151919350906001600160401b0380821115620003da57600080fd5b818601915086601f830112620003ef57600080fd5b8151818111156200040457620004046200020b565b8060051b604051601f19603f830116810181811085821117156200042c576200042c6200020b565b6040529182528482019250838101850191898311156200044b57600080fd5b938501935b82851015620004745762000464856200037e565b8452938501939285019262000450565b8096505050505050509250929050565b634e487b7160e01b600052603260045260246000fd5b6126b480620004aa6000396000f3fe608060405234801561001057600080fd5b50600436106102105760003560e01c8063835c928211610125578063ba772d8b116100ad578063d547741f1161007c578063d547741f1461053f578063e985e9c514610552578063efc1e71214610565578063f242432a14610578578063f2fde38b1461058b57600080fd5b8063ba772d8b146104cb578063c35b3e7c146104de578063caa2fe32146104f1578063d53913931461051857600080fd5b806391d14854116100f457806391d1485414610456578063a1a7212014610469578063a217fddf1461049d578063a22cb465146104a5578063b383577c146104b857600080fd5b8063835c9282146103cd5780638accdfe9146104015780638ada943b146104145780638da5cb5b1461043b57600080fd5b80632f2ff15d116101a857806353536a1c1161017757806353536a1c146103485780635e8823161461035b578063715018a614610382578063731133e91461038a57806376aed2e11461039d57600080fd5b80632f2ff15d146102ef57806336568abe146103025780634ae1ca4c146103155780634e1273f41461032857600080fd5b80631e090ea1116101e45780631e090ea1146102935780631f7fdffa146102a6578063248a9ca3146102b95780632eb2c2d6146102dc57600080fd5b8062fdd58e1461021557806301ffc9a71461023b5780630e89341c1461025e578063162094c41461027e575b600080fd5b610228610223366004611af2565b61059e565b6040519081526020015b60405180910390f35b61024e610249366004611b32565b6105c6565b6040519015158152602001610232565b61027161026c366004611b4f565b6105d1565b6040516102329190611bb8565b61029161028c366004611c80565b6106b1565b005b6102916102a1366004611d67565b6106ea565b6102916102b4366004611e28565b610777565b6102286102c7366004611b4f565b60009081526005602052604090206001015490565b6102916102ea366004611ec0565b610853565b6102916102fd366004611f69565b6108b3565b610291610310366004611f69565b6108de565b610228610323366004611af2565b610911565b61033b610336366004611f95565b610976565b6040516102329190612086565b610291610356366004611ec0565b610a47565b6102287f9d1c74b92ed8239fde331a06b7a12d3e870251719cfdcf1d0885f6ece358310481565b610291610ad3565b610291610398366004612099565b610ae7565b6103c06103ab366004611b4f565b60009081526007602052604090205460ff1690565b6040516102329190612125565b6102286103db366004611af2565b60009081526009602090815260408083206001600160a01b039094168352929052205490565b61029161040f366004612133565b610b6e565b6102287f832b0668f4756f82d274d4d6d2a66f96a8b25b4353ad5dfdae0e691d7769619b81565b6006546040516001600160a01b039091168152602001610232565b61024e610464366004611f69565b610bdc565b610228610477366004611af2565b60009081526008602090815260408083206001600160a01b039094168352929052205490565b610228600081565b6102916104b3366004612197565b610c07565b6102916104c6366004611ec0565b610c16565b6102916104d93660046121d3565b610c75565b6102916104ec3660046122a7565b610cef565b6102287ffc1552b6aa2747ab03534329d86f6d3131cc2c88af7e48b6486c346619047c1a81565b6102287f9f2df0fed2c77648de5860a4cc508cd0818c85b8b8a1ab4ceeef8d981c8956a681565b61029161054d366004611f69565b610d65565b61024e6105603660046122ca565b610d8a565b610291610573366004612133565b610db8565b610291610586366004612133565b610e45565b6102916105993660046122f4565b610e5e565b6000818152602081815260408083206001600160a01b03861684529091529020545b92915050565b60006105c082610e9c565b6000818152600460205260408120805460609291906105ef9061230f565b80601f016020809104026020016040519081016040528092919081815260200182805461061b9061230f565b80156106685780601f1061063d57610100808354040283529160200191610668565b820191906000526020600020905b81548152906001019060200180831161064b57829003601f168201915b5050505050905060008151116106865761068183610ec1565b6106aa565b60038160405160200161069a929190612349565b6040516020818303038152906040525b9392505050565b7f9d1c74b92ed8239fde331a06b7a12d3e870251719cfdcf1d0885f6ece35831046106db81610f55565b6106e58383610f5f565b505050565b7ffc1552b6aa2747ab03534329d86f6d3131cc2c88af7e48b6486c346619047c1a61071481610f55565b61071e8383610fbc565b8160405161072c91906123d0565b604051809103902083604051610742919061240d565b604051908190038120907f458bf7bb252bc16e01b2caf4ced1e71c065d09eccd86100e5f32036a1a55601490600090a3505050565b7f9f2df0fed2c77648de5860a4cc508cd0818c85b8b8a1ab4ceeef8d981c8956a66107a181610f55565b60005b84518110156107f2576107ea8582815181106107c2576107c2612437565b6020026020010151878684815181106107dd576107dd612437565b602002602001015161100c565b6001016107a4565b50846001600160a01b0316336001600160a01b03167f5c5ac6bfb3f54a39f008d2e9be10d575012f29230716d49e92da377d748b1a87868660405161083892919061244d565b60405180910390a361084c85858585611048565b5050505050565b60005b83518110156108a55761089d868686848151811061087657610876612437565b602002602001015186858151811061089057610890612437565b6020026020010151611080565b600101610856565b5061084c8585858585611154565b6000828152600560205260409020600101546108ce81610f55565b6108d883836111b3565b50505050565b6001600160a01b03811633146109075760405163334bd91960e11b815260040160405180910390fd5b6106e58282611247565b60008061091e848461059e565b60008481526008602090815260408083206001600160a01b0389168085529083528184205488855260098452828520918552925290912054919250906109649083612491565b61096e9190612491565b949350505050565b606081518351146109ac5781518351604051635b05999160e01b8152600481019290925260248201526044015b60405180910390fd5b600083516001600160401b038111156109c7576109c7611bcb565b6040519080825280602002602001820160405280156109f0578160200160208202803683370190505b50905060005b8451811015610a3f57602080820286010151610a1a9060208084028701015161059e565b828281518110610a2c57610a2c612437565b60209081029190910101526001016109f6565b509392505050565b7f832b0668f4756f82d274d4d6d2a66f96a8b25b4353ad5dfdae0e691d7769619b610a7181610f55565b846001600160a01b0316866001600160a01b03167fae334044d89a4678143ca617bb58de300b0747c711a5515afc005344ce0169478686604051610ab692919061244d565b60405180910390a3610acb8686868686611154565b505050505050565b610adb6112b4565b610ae560006112e1565b565b7f9f2df0fed2c77648de5860a4cc508cd0818c85b8b8a1ab4ceeef8d981c8956a6610b1181610f55565b610b1c84868561100c565b60408051858152602081018590526001600160a01b0387169133917f2f00e3cdd69a77be7ed215ec7b2a36784dd158f921fca79ac29deffa353fe6ee910160405180910390a361084c85858585611333565b610b79838684611390565b836001600160a01b0316856001600160a01b03167fcc27ae92d0cb1b1cee817e78e1fd2d4aaf4b6fceecf8400f074698578a83c9be8585604051610bc7929190918252602082015260400190565b60405180910390a361084c85858585856113c2565b60009182526005602090815260408084206001600160a01b0393909316845291905290205460ff1690565b610c12338383611421565b5050565b60005b8351811015610c6757610c5f848281518110610c3757610c37612437565b602002602001015187858481518110610c5257610c52612437565b6020026020010151611390565b600101610c19565b5061084c85858585856114b7565b7f9d1c74b92ed8239fde331a06b7a12d3e870251719cfdcf1d0885f6ece3583104610c9f81610f55565b60005b83518110156108d857610ce7848281518110610cc057610cc0612437565b6020026020010151848381518110610cda57610cda612437565b6020026020010151610f5f565b600101610ca2565b7ffc1552b6aa2747ab03534329d86f6d3131cc2c88af7e48b6486c346619047c1a610d1981610f55565b610d238383611517565b816002811115610d3557610d356120ed565b60405184907fead07cdef2d99ab0a2ec063fec849359dcf522a7aef017a8578461a11a478db390600090a3505050565b600082815260056020526040902060010154610d8081610f55565b6108d88383611247565b6001600160a01b03918216600090815260016020908152604080832093909416825291909152205460ff1690565b7f832b0668f4756f82d274d4d6d2a66f96a8b25b4353ad5dfdae0e691d7769619b610de281610f55565b846001600160a01b0316866001600160a01b03167fd616b8856fa5febbdb06f07dd8d624380d02864619f3b796002f43bc36a4d1bc8686604051610e30929190918252602082015260400190565b60405180910390a3610acb86868686866113c2565b610e5185858585611080565b61084c85858585856113c2565b610e666112b4565b6001600160a01b038116610e9057604051631e4fbdf760e01b8152600060048201526024016109a3565b610e99816112e1565b50565b60006001600160e01b03198216637965db0b60e01b14806105c057506105c08261154b565b606060028054610ed09061230f565b80601f0160208091040260200160405190810160405280929190818152602001828054610efc9061230f565b8015610f495780601f10610f1e57610100808354040283529160200191610f49565b820191906000526020600020905b815481529060010190602001808311610f2c57829003601f168201915b50505050509050919050565b610e99813361159b565b6000828152600460205260409020610f7782826124ec565b50817f6bb7ff708619ba0610cba295a58592e0451dee2622938c8755667688daf3529b610fa3846105d1565b604051610fb09190611bb8565b60405180910390a25050565b60005b82518110156106e557611004838281518110610fdd57610fdd612437565b6020026020010151838381518110610ff757610ff7612437565b6020026020010151611517565b600101610fbf565b60008381526008602090815260408083206001600160a01b03861684529091528120805483929061103e9084906125ab565b9091555050505050565b6001600160a01b03841661107257604051632bfa23e760e11b8152600060048201526024016109a3565b6108d86000858585856115d4565b600160008381526007602052604090205460ff1660028111156110a5576110a56120ed565b036110c3576040516326e9d7ed60e21b815260040160405180910390fd5b6110cd8483610911565b8111156110ed576040516350c8cedb60e11b815260040160405180910390fd5b600260008381526007602052604090205460ff166002811115611112576111126120ed565b036108d85760008281526009602090815260408083206001600160a01b0387168452909152812080548392906111499084906125ab565b909155505050505050565b336001600160a01b038616811480159061117557506111738682610d8a565b155b156111a65760405163711bec9160e11b81526001600160a01b038083166004830152871660248201526044016109a3565b610acb86868686866114b7565b60006111bf8383610bdc565b61123f5760008381526005602090815260408083206001600160a01b03861684529091529020805460ff191660011790556111f73390565b6001600160a01b0316826001600160a01b0316847f2f8788117e7eff1d82e926ec794901d17c78024a50270940304540a733656f0d60405160405180910390a45060016105c0565b5060006105c0565b60006112538383610bdc565b1561123f5760008381526005602090815260408083206001600160a01b0386168085529252808320805460ff1916905551339286917ff6391f5c32d9c69d2a47ea670b442974b53935d1edc7fd64eb21e047a839171b9190a45060016105c0565b6006546001600160a01b03163314610ae55760405163118cdaa760e01b81523360048201526024016109a3565b600680546001600160a01b038381166001600160a01b0319831681179093556040519116919082907f8be0079c531659141344cd1fd0a4f28419497f9722a3daafe3b4186f6b6457e090600090a35050565b6001600160a01b03841661135d57604051632bfa23e760e11b8152600060048201526024016109a3565b60408051600180825260208201869052818301908152606082018590526080820190925290610acb6000878484876115d4565b60008381526008602090815260408083206001600160a01b03861684529091528120805483929061103e908490612491565b336001600160a01b03861681148015906113e357506113e18682610d8a565b155b156114145760405163711bec9160e11b81526001600160a01b038083166004830152871660248201526044016109a3565b610acb8686868686611627565b6001600160a01b03821661144a5760405162ced3e160e81b8152600060048201526024016109a3565b6001600160a01b03838116600081815260016020908152604080832094871680845294825291829020805460ff191686151590811790915591519182527f17307eab39ab6107e8899845ad3d59bd9653f200f220920489ca2b5937696c31910160405180910390a3505050565b6001600160a01b0384166114e157604051632bfa23e760e11b8152600060048201526024016109a3565b6001600160a01b03851661150a57604051626a0d4560e21b8152600060048201526024016109a3565b61084c85858585856115d4565b6000828152600760205260409020805482919060ff19166001836002811115611542576115426120ed565b02179055505050565b60006001600160e01b03198216636cdb3d1360e11b148061157c57506001600160e01b031982166303a24d0760e21b145b806105c057506301ffc9a760e01b6001600160e01b03198316146105c0565b6115a58282610bdc565b610c125760405163e2517d3f60e01b81526001600160a01b0382166004820152602481018390526044016109a3565b6115e0858585856116b5565b6001600160a01b0384161561084c578251339060010361161957602084810151908401516116128389898585896118c9565b5050610acb565b610acb8187878787876119ed565b6001600160a01b03841661165157604051632bfa23e760e11b8152600060048201526024016109a3565b6001600160a01b03851661167a57604051626a0d4560e21b8152600060048201526024016109a3565b604080516001808252602082018690528183019081526060820185905260808201909252906116ac87878484876115d4565b50505050505050565b80518251146116e45781518151604051635b05999160e01b8152600481019290925260248201526044016109a3565b3360005b83518110156117ea576020818102858101820151908501909101516001600160a01b0388161561179b576000828152602081815260408083206001600160a01b038c16845290915290205481811015611774576040516303dee4c560e01b81526001600160a01b038a1660048201526024810182905260448101839052606481018490526084016109a3565b6000838152602081815260408083206001600160a01b038d16845290915290209082900390555b6001600160a01b038716156117e0576000828152602081815260408083206001600160a01b038b168452909152812080548392906117da9084906125ab565b90915550505b50506001016116e8565b50825160010361186b5760208301516000906020840151909150856001600160a01b0316876001600160a01b0316846001600160a01b03167fc3d58168c5ae7397731d063d5bbf3d657854427343f4c083240f7aacaa2d0f62858560405161185c929190918252602082015260400190565b60405180910390a4505061084c565b836001600160a01b0316856001600160a01b0316826001600160a01b03167f4a39dc06d4c0dbc64b70af90fd698a233a518aa5d07e595d983b8c0526c8f7fb86866040516118ba92919061244d565b60405180910390a45050505050565b6001600160a01b0384163b15610acb5760405163f23a6e6160e01b81526001600160a01b0385169063f23a6e619061190d90899089908890889088906004016125be565b6020604051808303816000875af1925050508015611948575060408051601f3d908101601f1916820190925261194591810190612603565b60015b6119b1573d808015611976576040519150601f19603f3d011682016040523d82523d6000602084013e61197b565b606091505b5080516000036119a957604051632bfa23e760e11b81526001600160a01b03861660048201526024016109a3565b805181602001fd5b6001600160e01b0319811663f23a6e6160e01b146116ac57604051632bfa23e760e11b81526001600160a01b03861660048201526024016109a3565b6001600160a01b0384163b15610acb5760405163bc197c8160e01b81526001600160a01b0385169063bc197c8190611a319089908990889088908890600401612620565b6020604051808303816000875af1925050508015611a6c575060408051601f3d908101601f19168201909252611a6991810190612603565b60015b611a9a573d808015611976576040519150601f19603f3d011682016040523d82523d6000602084013e61197b565b6001600160e01b0319811663bc197c8160e01b146116ac57604051632bfa23e760e11b81526001600160a01b03861660048201526024016109a3565b80356001600160a01b0381168114611aed57600080fd5b919050565b60008060408385031215611b0557600080fd5b611b0e83611ad6565b946020939093013593505050565b6001600160e01b031981168114610e9957600080fd5b600060208284031215611b4457600080fd5b81356106aa81611b1c565b600060208284031215611b6157600080fd5b5035919050565b60005b83811015611b83578181015183820152602001611b6b565b50506000910152565b60008151808452611ba4816020860160208601611b68565b601f01601f19169290920160200192915050565b6020815260006106aa6020830184611b8c565b634e487b7160e01b600052604160045260246000fd5b604051601f8201601f191681016001600160401b0381118282101715611c0957611c09611bcb565b604052919050565b600082601f830112611c2257600080fd5b81356001600160401b03811115611c3b57611c3b611bcb565b611c4e601f8201601f1916602001611be1565b818152846020838601011115611c6357600080fd5b816020850160208301376000918101602001919091529392505050565b60008060408385031215611c9357600080fd5b8235915060208301356001600160401b03811115611cb057600080fd5b611cbc85828601611c11565b9150509250929050565b60006001600160401b03821115611cdf57611cdf611bcb565b5060051b60200190565b600082601f830112611cfa57600080fd5b81356020611d0f611d0a83611cc6565b611be1565b8083825260208201915060208460051b870101935086841115611d3157600080fd5b602086015b84811015611d4d5780358352918301918301611d36565b509695505050505050565b803560038110611aed57600080fd5b60008060408385031215611d7a57600080fd5b82356001600160401b0380821115611d9157600080fd5b611d9d86838701611ce9565b9350602091508185013581811115611db457600080fd5b85019050601f81018613611dc757600080fd5b8035611dd5611d0a82611cc6565b81815260059190911b82018301908381019088831115611df457600080fd5b928401925b82841015611e1957611e0a84611d58565b82529284019290840190611df9565b80955050505050509250929050565b60008060008060808587031215611e3e57600080fd5b611e4785611ad6565b935060208501356001600160401b0380821115611e6357600080fd5b611e6f88838901611ce9565b94506040870135915080821115611e8557600080fd5b611e9188838901611ce9565b93506060870135915080821115611ea757600080fd5b50611eb487828801611c11565b91505092959194509250565b600080600080600060a08688031215611ed857600080fd5b611ee186611ad6565b9450611eef60208701611ad6565b935060408601356001600160401b0380821115611f0b57600080fd5b611f1789838a01611ce9565b94506060880135915080821115611f2d57600080fd5b611f3989838a01611ce9565b93506080880135915080821115611f4f57600080fd5b50611f5c88828901611c11565b9150509295509295909350565b60008060408385031215611f7c57600080fd5b82359150611f8c60208401611ad6565b90509250929050565b60008060408385031215611fa857600080fd5b82356001600160401b0380821115611fbf57600080fd5b818501915085601f830112611fd357600080fd5b81356020611fe3611d0a83611cc6565b82815260059290921b8401810191818101908984111561200257600080fd5b948201945b838610156120275761201886611ad6565b82529482019490820190612007565b9650508601359250508082111561203d57600080fd5b50611cbc85828601611ce9565b60008151808452602080850194506020840160005b8381101561207b5781518752958201959082019060010161205f565b509495945050505050565b6020815260006106aa602083018461204a565b600080600080608085870312156120af57600080fd5b6120b885611ad6565b9350602085013592506040850135915060608501356001600160401b038111156120e157600080fd5b611eb487828801611c11565b634e487b7160e01b600052602160045260246000fd5b6003811061212157634e487b7160e01b600052602160045260246000fd5b9052565b602081016105c08284612103565b600080600080600060a0868803121561214b57600080fd5b61215486611ad6565b945061216260208701611ad6565b9350604086013592506060860135915060808601356001600160401b0381111561218b57600080fd5b611f5c88828901611c11565b600080604083850312156121aa57600080fd5b6121b383611ad6565b9150602083013580151581146121c857600080fd5b809150509250929050565b600080604083850312156121e657600080fd5b82356001600160401b03808211156121fd57600080fd5b61220986838701611ce9565b935060209150818501358181111561222057600080fd5b8501601f8101871361223157600080fd5b803561223f611d0a82611cc6565b81815260059190911b8201840190848101908983111561225e57600080fd5b8584015b838110156122965780358681111561227a5760008081fd5b6122888c8983890101611c11565b845250918601918601612262565b508096505050505050509250929050565b600080604083850312156122ba57600080fd5b82359150611f8c60208401611d58565b600080604083850312156122dd57600080fd5b6122e683611ad6565b9150611f8c60208401611ad6565b60006020828403121561230657600080fd5b6106aa82611ad6565b600181811c9082168061232357607f821691505b60208210810361234357634e487b7160e01b600052602260045260246000fd5b50919050565b60008084546123578161230f565b6001828116801561236f5760018114612384576123b3565b60ff19841687528215158302870194506123b3565b8860005260208060002060005b858110156123aa5781548a820152908401908201612391565b50505082870194505b5050505083516123c7818360208801611b68565b01949350505050565b815160009082906020808601845b83811015612401576123f1858351612103565b93820193908201906001016123de565b50929695505050505050565b815160009082906020808601845b838110156124015781518552938201939082019060010161241b565b634e487b7160e01b600052603260045260246000fd5b604081526000612460604083018561204a565b8281036020840152612472818561204a565b95945050505050565b634e487b7160e01b600052601160045260246000fd5b818103818111156105c0576105c061247b565b601f8211156106e5576000816000526020600020601f850160051c810160208610156124cd5750805b601f850160051c820191505b81811015610acb578281556001016124d9565b81516001600160401b0381111561250557612505611bcb565b61251981612513845461230f565b846124a4565b602080601f83116001811461254e57600084156125365750858301515b600019600386901b1c1916600185901b178555610acb565b600085815260208120601f198616915b8281101561257d5788860151825594840194600190910190840161255e565b508582101561259b5787850151600019600388901b60f8161c191681555b5050505050600190811b01905550565b808201808211156105c0576105c061247b565b6001600160a01b03868116825285166020820152604081018490526060810183905260a0608082018190526000906125f890830184611b8c565b979650505050505050565b60006020828403121561261557600080fd5b81516106aa81611b1c565b6001600160a01b0386811682528516602082015260a06040820181905260009061264c9083018661204a565b828103606084015261265e818661204a565b905082810360808401526126728185611b8c565b9897505050505050505056fea264697066735822122067d94680965ea2e6f8d775ce91711ffcce6658cbd7bfca4dc4f8ea8e60edd82064736f6c63430008170033000000000000000000000000c689c800a7121b186208ea3b182fab2671b337e70000000000000000000000000000000000000000000000000000000000000040000000000000000000000000000000000000000000000000000000000000000200000000000000000000000031d7312587d9d868d420661f4c9d7f35b9c776db000000000000000000000000c689c800a7121b186208ea3b182fab2671b337e7",
        "nonce": "0x0"
      },
      "additionalContracts": [],
      "isFixedGasLimit": false
    },
    {
      "hash": "0x8f85b8c66bbbfc0bd750dc8bbf2b48be87736e6f9ecead3d4ae666383835ba02",
      "transactionType": "CALL",
      "contractName": "ReputationTokens",
      "contractAddress": "0xFEe6635F43E1eeff88F0A6876Dc9153Fb128a81F",
      "function": "grantRole(bytes32,address)",
      "arguments": [
        "0xfc1552b6aa2747ab03534329d86f6d3131cc2c88af7e48b6486c346619047c1a",
        "0x31D7312587D9d868d420661f4C9D7F35B9C776db"
      ],
      "transaction": {
        "type": "0x00",
        "from": "0x31d7312587d9d868d420661f4c9d7f35b9c776db",
        "to": "0xfee6635f43e1eeff88f0a6876dc9153fb128a81f",
        "gas": "0x12634",
        "value": "0x0",
        "data": "0x2f2ff15dfc1552b6aa2747ab03534329d86f6d3131cc2c88af7e48b6486c346619047c1a00000000000000000000000031d7312587d9d868d420661f4c9d7f35b9c776db",
        "nonce": "0x1"
      },
      "additionalContracts": [],
      "isFixedGasLimit": false
    },
    {
      "hash": "0x09dd796abb4b51581ad755e24976e3fe8e816eb616726a41471814c236ba9afc",
      "transactionType": "CALL",
      "contractName": "ReputationTokens",
      "contractAddress": "0xFEe6635F43E1eeff88F0A6876Dc9153Fb128a81F",
      "function": "grantRole(bytes32,address)",
      "arguments": [
        "0x9d1c74b92ed8239fde331a06b7a12d3e870251719cfdcf1d0885f6ece3583104",
        "0x31D7312587D9d868d420661f4C9D7F35B9C776db"
      ],
      "transaction": {
        "type": "0x00",
        "from": "0x31d7312587d9d868d420661f4c9d7f35b9c776db",
        "to": "0xfee6635f43e1eeff88f0a6876dc9153fb128a81f",
        "gas": "0x12634",
        "value": "0x0",
        "data": "0x2f2ff15d9d1c74b92ed8239fde331a06b7a12d3e870251719cfdcf1d0885f6ece358310400000000000000000000000031d7312587d9d868d420661f4c9d7f35b9c776db",
        "nonce": "0x2"
      },
      "additionalContracts": [],
      "isFixedGasLimit": false
    },
    {
      "hash": "0x79ff7cfce664aa6e951c3b2018e61fb6e4fdebf676ce5ca1be0a058ec1b6c894",
      "transactionType": "CALL",
      "contractName": "ReputationTokens",
      "contractAddress": "0xFEe6635F43E1eeff88F0A6876Dc9153Fb128a81F",
      "function": "updateTokenBatch(uint256[],uint8[])",
      "arguments": [
        "[0, 1]",
        "[1, 2]"
      ],
      "transaction": {
        "type": "0x00",
        "from": "0x31d7312587d9d868d420661f4c9d7f35b9c776db",
        "to": "0xfee6635f43e1eeff88f0a6876dc9153fb128a81f",
        "gas": "0x18bb6",
        "value": "0x0",
        "data": "0x1e090ea1000000000000000000000000000000000000000000000000000000000000004000000000000000000000000000000000000000000000000000000000000000a0000000000000000000000000000000000000000000000000000000000000000200000000000000000000000000000000000000000000000000000000000000000000000000000000000000000000000000000000000000000000000000000001000000000000000000000000000000000000000000000000000000000000000200000000000000000000000000000000000000000000000000000000000000010000000000000000000000000000000000000000000000000000000000000002",
        "nonce": "0x3"
      },
      "additionalContracts": [],
      "isFixedGasLimit": false
    },
    {
      "hash": "0x5f90ad643cc701c391996f6aa2290ec9a47a43a981d812ce36fcbf186ba1edeb",
      "transactionType": "CALL",
      "contractName": "ReputationTokens",
      "contractAddress": "0xFEe6635F43E1eeff88F0A6876Dc9153Fb128a81F",
      "function": "setTokenURI(uint256,string)",
      "arguments": [
        "0",
        "\"ipfs://bafybeiaz55w6kf7ar2g5vzikfbft2qoexknstfouu524l7q3mliutns2u4/0\""
      ],
      "transaction": {
        "type": "0x00",
        "from": "0x31d7312587d9d868d420661f4c9d7f35b9c776db",
        "to": "0xfee6635f43e1eeff88f0a6876dc9153fb128a81f",
        "gas": "0x2b86d",
        "value": "0x0",
        "data": "0x162094c4000000000000000000000000000000000000000000000000000000000000000000000000000000000000000000000000000000000000000000000000000000400000000000000000000000000000000000000000000000000000000000000044697066733a2f2f62616679626569617a353577366b66376172326735767a696b6662667432716f65786b6e7374666f75753532346c3771336d6c6975746e733275342f3000000000000000000000000000000000000000000000000000000000",
        "nonce": "0x4"
      },
      "additionalContracts": [],
      "isFixedGasLimit": false
    },
    {
      "hash": "0x739fe39f7c26bfca205f695b7537168df70b173f59aae9fce3a78f022d5c2d57",
      "transactionType": "CALL",
      "contractName": "ReputationTokens",
      "contractAddress": "0xFEe6635F43E1eeff88F0A6876Dc9153Fb128a81F",
      "function": "setTokenURI(uint256,string)",
      "arguments": [
        "1",
        "\"ipfs://bafybeiaz55w6kf7ar2g5vzikfbft2qoexknstfouu524l7q3mliutns2u4/1\""
      ],
      "transaction": {
        "type": "0x00",
        "from": "0x31d7312587d9d868d420661f4c9d7f35b9c776db",
        "to": "0xfee6635f43e1eeff88f0a6876dc9153fb128a81f",
        "gas": "0x291cc",
        "value": "0x0",
        "data": "0x162094c4000000000000000000000000000000000000000000000000000000000000000100000000000000000000000000000000000000000000000000000000000000400000000000000000000000000000000000000000000000000000000000000044697066733a2f2f62616679626569617a353577366b66376172326735767a696b6662667432716f65786b6e7374666f75753532346c3771336d6c6975746e733275342f3100000000000000000000000000000000000000000000000000000000",
        "nonce": "0x5"
      },
      "additionalContracts": [],
      "isFixedGasLimit": false
    },
    {
      "hash": "0x1972ae9772ecc2b93d94c3cfc4695c12a8b41e134f049f74cee707b774ff2957",
      "transactionType": "CALL",
      "contractName": "ReputationTokens",
      "contractAddress": "0xFEe6635F43E1eeff88F0A6876Dc9153Fb128a81F",
      "function": "revokeRole(bytes32,address)",
      "arguments": [
        "0xfc1552b6aa2747ab03534329d86f6d3131cc2c88af7e48b6486c346619047c1a",
        "0x31D7312587D9d868d420661f4C9D7F35B9C776db"
      ],
      "transaction": {
        "type": "0x00",
        "from": "0x31d7312587d9d868d420661f4c9d7f35b9c776db",
        "to": "0xfee6635f43e1eeff88f0a6876dc9153fb128a81f",
        "gas": "0x9f58",
        "value": "0x0",
        "data": "0xd547741ffc1552b6aa2747ab03534329d86f6d3131cc2c88af7e48b6486c346619047c1a00000000000000000000000031d7312587d9d868d420661f4c9d7f35b9c776db",
        "nonce": "0x6"
      },
      "additionalContracts": [],
      "isFixedGasLimit": false
    },
    {
      "hash": "0x0795bb0a622ac3aa47c3a1ebd7dfc91f4b4e793d3f1c66dd3b4cb2b20bc8c861",
      "transactionType": "CALL",
      "contractName": "ReputationTokens",
      "contractAddress": "0xFEe6635F43E1eeff88F0A6876Dc9153Fb128a81F",
      "function": "revokeRole(bytes32,address)",
      "arguments": [
        "0x9d1c74b92ed8239fde331a06b7a12d3e870251719cfdcf1d0885f6ece3583104",
        "0x31D7312587D9d868d420661f4C9D7F35B9C776db"
      ],
      "transaction": {
        "type": "0x00",
        "from": "0x31d7312587d9d868d420661f4c9d7f35b9c776db",
        "to": "0xfee6635f43e1eeff88f0a6876dc9153fb128a81f",
        "gas": "0x9f58",
        "value": "0x0",
        "data": "0xd547741f9d1c74b92ed8239fde331a06b7a12d3e870251719cfdcf1d0885f6ece358310400000000000000000000000031d7312587d9d868d420661f4c9d7f35b9c776db",
        "nonce": "0x7"
      },
      "additionalContracts": [],
      "isFixedGasLimit": false
    },
    {
      "hash": "0x5ad1b25892559528409c3a9817823d022d43d7e70e6a789b62d69861f0d8fa65",
      "transactionType": "CALL",
      "contractName": "ReputationTokens",
      "contractAddress": "0xFEe6635F43E1eeff88F0A6876Dc9153Fb128a81F",
      "function": "revokeRole(bytes32,address)",
      "arguments": [
        "0x0000000000000000000000000000000000000000000000000000000000000000",
        "0x31D7312587D9d868d420661f4C9D7F35B9C776db"
      ],
      "transaction": {
        "type": "0x00",
        "from": "0x31d7312587d9d868d420661f4c9d7f35b9c776db",
        "to": "0xfee6635f43e1eeff88f0a6876dc9153fb128a81f",
        "gas": "0x927b",
        "value": "0x0",
        "data": "0xd547741f000000000000000000000000000000000000000000000000000000000000000000000000000000000000000031d7312587d9d868d420661f4c9d7f35b9c776db",
        "nonce": "0x8"
      },
      "additionalContracts": [],
      "isFixedGasLimit": false
    }
  ],
  "receipts": [
    {
      "transactionHash": "0xa6a6621b08b207e44aa8823faa2b7eb3344e327958150908e3092105a6c10990",
      "transactionIndex": "0x12",
      "blockHash": "0x9ef4efa0159c745ea99e4725db53296f3597804458a8a3e64d30f605906702eb",
      "blockNumber": "0x7298d09",
      "from": "0x31D7312587D9d868d420661f4C9D7F35B9C776db",
      "to": null,
      "cumulativeGasUsed": "0x881ba8",
      "gasUsed": "0x22f98e",
      "contractAddress": "0xFEe6635F43E1eeff88F0A6876Dc9153Fb128a81F",
      "logs": [
        {
          "address": "0xFEe6635F43E1eeff88F0A6876Dc9153Fb128a81F",
          "topics": [
            "0x8be0079c531659141344cd1fd0a4f28419497f9722a3daafe3b4186f6b6457e0",
            "0x0000000000000000000000000000000000000000000000000000000000000000",
            "0x000000000000000000000000c689c800a7121b186208ea3b182fab2671b337e7"
          ],
          "data": "0x",
          "blockHash": "0x9ef4efa0159c745ea99e4725db53296f3597804458a8a3e64d30f605906702eb",
          "blockNumber": "0x7298d09",
          "transactionHash": "0xa6a6621b08b207e44aa8823faa2b7eb3344e327958150908e3092105a6c10990",
          "transactionIndex": "0x12",
          "logIndex": "0x8c",
          "removed": false
        },
        {
          "address": "0xFEe6635F43E1eeff88F0A6876Dc9153Fb128a81F",
          "topics": [
            "0x2f8788117e7eff1d82e926ec794901d17c78024a50270940304540a733656f0d",
            "0x0000000000000000000000000000000000000000000000000000000000000000",
            "0x00000000000000000000000031d7312587d9d868d420661f4c9d7f35b9c776db",
            "0x00000000000000000000000031d7312587d9d868d420661f4c9d7f35b9c776db"
          ],
          "data": "0x",
          "blockHash": "0x9ef4efa0159c745ea99e4725db53296f3597804458a8a3e64d30f605906702eb",
          "blockNumber": "0x7298d09",
          "transactionHash": "0xa6a6621b08b207e44aa8823faa2b7eb3344e327958150908e3092105a6c10990",
          "transactionIndex": "0x12",
          "logIndex": "0x8d",
          "removed": false
        },
        {
          "address": "0xFEe6635F43E1eeff88F0A6876Dc9153Fb128a81F",
          "topics": [
            "0x2f8788117e7eff1d82e926ec794901d17c78024a50270940304540a733656f0d",
            "0x0000000000000000000000000000000000000000000000000000000000000000",
            "0x000000000000000000000000c689c800a7121b186208ea3b182fab2671b337e7",
            "0x00000000000000000000000031d7312587d9d868d420661f4c9d7f35b9c776db"
          ],
          "data": "0x",
          "blockHash": "0x9ef4efa0159c745ea99e4725db53296f3597804458a8a3e64d30f605906702eb",
          "blockNumber": "0x7298d09",
          "transactionHash": "0xa6a6621b08b207e44aa8823faa2b7eb3344e327958150908e3092105a6c10990",
          "transactionIndex": "0x12",
          "logIndex": "0x8e",
          "removed": false
        }
      ],
      "status": "0x1",
      "logsBloom": "0x00000004000000000000000000000000000000000000000000800000000000000000000000000000000000000000000000000000000000000000000000000000000000000004000000008000000000000001000000000000000000000000000000000000020000004000000000000880800000000000000000000000000080400000000000000000000000000000000002000000000000000000000000000000000000000000000000000000000000000000010000000000001000000000000000000000000000000000000000000000000000000000000100000000000020000000000000000000000000010000000000000000000000000000000000000000",
      "type": "0x0",
      "effectiveGasPrice": "0x62e60e"
    },
    {
      "transactionHash": "0x8f85b8c66bbbfc0bd750dc8bbf2b48be87736e6f9ecead3d4ae666383835ba02",
      "transactionIndex": "0x13",
      "blockHash": "0x9ef4efa0159c745ea99e4725db53296f3597804458a8a3e64d30f605906702eb",
      "blockNumber": "0x7298d09",
      "from": "0x31D7312587D9d868d420661f4C9D7F35B9C776db",
      "to": "0xFEe6635F43E1eeff88F0A6876Dc9153Fb128a81F",
      "cumulativeGasUsed": "0x88e4d3",
      "gasUsed": "0xc92b",
      "contractAddress": null,
      "logs": [
        {
          "address": "0xFEe6635F43E1eeff88F0A6876Dc9153Fb128a81F",
          "topics": [
            "0x2f8788117e7eff1d82e926ec794901d17c78024a50270940304540a733656f0d",
            "0xfc1552b6aa2747ab03534329d86f6d3131cc2c88af7e48b6486c346619047c1a",
            "0x00000000000000000000000031d7312587d9d868d420661f4c9d7f35b9c776db",
            "0x00000000000000000000000031d7312587d9d868d420661f4c9d7f35b9c776db"
          ],
          "data": "0x",
          "blockHash": "0x9ef4efa0159c745ea99e4725db53296f3597804458a8a3e64d30f605906702eb",
          "blockNumber": "0x7298d09",
          "transactionHash": "0x8f85b8c66bbbfc0bd750dc8bbf2b48be87736e6f9ecead3d4ae666383835ba02",
          "transactionIndex": "0x13",
          "logIndex": "0x8f",
          "removed": false
        }
      ],
      "status": "0x1",
      "logsBloom": "0x00000004000000000000000000000000000000000000000000000000000000000000000000000000000000000000000400000000000000000000000000000000000000000004000000000000000000000000000000000000000000000800000000000000000000000000000000000000800000000000000000000000000080000000000000000000000000000000000002000000000000000000000000000000000000000000000000000000000000000000010000001000001000000000000000000000000000000000000000000000000000000000000100000000000000000000000000000000000000010000000000000000000000000000000000000000",
      "type": "0x0",
      "effectiveGasPrice": "0x62e60e"
    },
    {
      "transactionHash": "0x09dd796abb4b51581ad755e24976e3fe8e816eb616726a41471814c236ba9afc",
      "transactionIndex": "0x14",
      "blockHash": "0x9ef4efa0159c745ea99e4725db53296f3597804458a8a3e64d30f605906702eb",
      "blockNumber": "0x7298d09",
      "from": "0x31D7312587D9d868d420661f4C9D7F35B9C776db",
      "to": "0xFEe6635F43E1eeff88F0A6876Dc9153Fb128a81F",
      "cumulativeGasUsed": "0x89adfe",
      "gasUsed": "0xc92b",
      "contractAddress": null,
      "logs": [
        {
          "address": "0xFEe6635F43E1eeff88F0A6876Dc9153Fb128a81F",
          "topics": [
            "0x2f8788117e7eff1d82e926ec794901d17c78024a50270940304540a733656f0d",
            "0x9d1c74b92ed8239fde331a06b7a12d3e870251719cfdcf1d0885f6ece3583104",
            "0x00000000000000000000000031d7312587d9d868d420661f4c9d7f35b9c776db",
            "0x00000000000000000000000031d7312587d9d868d420661f4c9d7f35b9c776db"
          ],
          "data": "0x",
          "blockHash": "0x9ef4efa0159c745ea99e4725db53296f3597804458a8a3e64d30f605906702eb",
          "blockNumber": "0x7298d09",
          "transactionHash": "0x09dd796abb4b51581ad755e24976e3fe8e816eb616726a41471814c236ba9afc",
          "transactionIndex": "0x14",
          "logIndex": "0x90",
          "removed": false
        }
      ],
      "status": "0x1",
      "logsBloom": "0x00000004000000000000000020000000000000000000000000000000000000000000000000000000000000000000000000000000000000000000000000000000000000020004000000000000000000000000000000000000000000000000000000000000000000000000000000000000800000000000000000000000000080000000000000000000000000000000000002000000000000000000000000000000000000000000000000000000000000000000010000000000001000000000000000000000000000000000000000000000000000000000000100000000000000000000000000000000000000010001000000000000000000000000000000000000",
      "type": "0x0",
      "effectiveGasPrice": "0x62e60e"
    },
    {
      "transactionHash": "0x79ff7cfce664aa6e951c3b2018e61fb6e4fdebf676ce5ca1be0a058ec1b6c894",
      "transactionIndex": "0x15",
      "blockHash": "0x9ef4efa0159c745ea99e4725db53296f3597804458a8a3e64d30f605906702eb",
      "blockNumber": "0x7298d09",
      "from": "0x31D7312587D9d868d420661f4C9D7F35B9C776db",
      "to": "0xFEe6635F43E1eeff88F0A6876Dc9153Fb128a81F",
      "cumulativeGasUsed": "0x8acc7c",
      "gasUsed": "0x11e7e",
      "contractAddress": null,
      "logs": [
        {
          "address": "0xFEe6635F43E1eeff88F0A6876Dc9153Fb128a81F",
          "topics": [
            "0x458bf7bb252bc16e01b2caf4ced1e71c065d09eccd86100e5f32036a1a556014",
            "0xa6eef7e35abe7026729641147f7915573c7e97b47efa546f5f6e3230263bcb49",
            "0xe90b7bceb6e7df5418fb78d8ee546e97c83a08bbccc01a0644d599ccd2a7c2e0"
          ],
          "data": "0x",
          "blockHash": "0x9ef4efa0159c745ea99e4725db53296f3597804458a8a3e64d30f605906702eb",
          "blockNumber": "0x7298d09",
          "transactionHash": "0x79ff7cfce664aa6e951c3b2018e61fb6e4fdebf676ce5ca1be0a058ec1b6c894",
          "transactionIndex": "0x15",
          "logIndex": "0x91",
          "removed": false
        }
      ],
      "status": "0x1",
      "logsBloom": "0x00008000000000000000000000000000000000000000000000000080000000000000000000000000002000000000000000000000000000021000000000000000000000000000000000000000000000000001000000000000000000000000000000000800000000000000000000000000800000000000000000000000000000000100000000000000000000000000000002000000000000000000000000000000000000000000000000000000000000000000010000000000000000000000000000000000000000000000000000000000000000000000080000000000000000000000000000000000000000000000000000000000000000000000000000000000",
      "type": "0x0",
      "effectiveGasPrice": "0x62e60e"
    },
    {
      "transactionHash": "0x5f90ad643cc701c391996f6aa2290ec9a47a43a981d812ce36fcbf186ba1edeb",
      "transactionIndex": "0x16",
      "blockHash": "0x9ef4efa0159c745ea99e4725db53296f3597804458a8a3e64d30f605906702eb",
      "blockNumber": "0x7298d09",
      "from": "0x31D7312587D9d868d420661f4C9D7F35B9C776db",
      "to": "0xFEe6635F43E1eeff88F0A6876Dc9153Fb128a81F",
      "cumulativeGasUsed": "0x8ca8ad",
      "gasUsed": "0x1dc31",
      "contractAddress": null,
      "logs": [
        {
          "address": "0xFEe6635F43E1eeff88F0A6876Dc9153Fb128a81F",
          "topics": [
            "0x6bb7ff708619ba0610cba295a58592e0451dee2622938c8755667688daf3529b",
            "0x0000000000000000000000000000000000000000000000000000000000000000"
          ],
          "data": "0x00000000000000000000000000000000000000000000000000000000000000200000000000000000000000000000000000000000000000000000000000000044697066733a2f2f62616679626569617a353577366b66376172326735767a696b6662667432716f65786b6e7374666f75753532346c3771336d6c6975746e733275342f3000000000000000000000000000000000000000000000000000000000",
          "blockHash": "0x9ef4efa0159c745ea99e4725db53296f3597804458a8a3e64d30f605906702eb",
          "blockNumber": "0x7298d09",
          "transactionHash": "0x5f90ad643cc701c391996f6aa2290ec9a47a43a981d812ce36fcbf186ba1edeb",
          "transactionIndex": "0x16",
          "logIndex": "0x92",
          "removed": false
        }
      ],
      "status": "0x1",
      "logsBloom": "0x00000000000000000000000000000000000000000000000000000000000000000000000000000000000000000000000000000000000000000000000000000000000000000000010000000020000000000000000000000000000000000000000000000000020000000000000000000800800000000000000000000000000000000000000000000000000000000000001002000000000000000000000000000000000000000000000000000000000000000000010000000000000000000000000000000000000000000000000000000000000000000000000000000000000020000000000000000000000000000000000000000000000000000000000000000000",
      "type": "0x0",
      "effectiveGasPrice": "0x62e60e"
    },
    {
      "transactionHash": "0x739fe39f7c26bfca205f695b7537168df70b173f59aae9fce3a78f022d5c2d57",
      "transactionIndex": "0x17",
      "blockHash": "0x9ef4efa0159c745ea99e4725db53296f3597804458a8a3e64d30f605906702eb",
      "blockNumber": "0x7298d09",
      "from": "0x31D7312587D9d868d420661f4C9D7F35B9C776db",
      "to": "0xFEe6635F43E1eeff88F0A6876Dc9153Fb128a81F",
      "cumulativeGasUsed": "0x8e84ea",
      "gasUsed": "0x1dc3d",
      "contractAddress": null,
      "logs": [
        {
          "address": "0xFEe6635F43E1eeff88F0A6876Dc9153Fb128a81F",
          "topics": [
            "0x6bb7ff708619ba0610cba295a58592e0451dee2622938c8755667688daf3529b",
            "0x0000000000000000000000000000000000000000000000000000000000000001"
          ],
          "data": "0x00000000000000000000000000000000000000000000000000000000000000200000000000000000000000000000000000000000000000000000000000000044697066733a2f2f62616679626569617a353577366b66376172326735767a696b6662667432716f65786b6e7374666f75753532346c3771336d6c6975746e733275342f3100000000000000000000000000000000000000000000000000000000",
          "blockHash": "0x9ef4efa0159c745ea99e4725db53296f3597804458a8a3e64d30f605906702eb",
          "blockNumber": "0x7298d09",
          "transactionHash": "0x739fe39f7c26bfca205f695b7537168df70b173f59aae9fce3a78f022d5c2d57",
          "transactionIndex": "0x17",
          "logIndex": "0x93",
          "removed": false
        }
      ],
      "status": "0x1",
      "logsBloom": "0x00000000000000000000000000000000000000000000000000000000000000000000000000000000000000000000000000000000000000000000000000040000000000000000010000000020000000000000000000040000000000000000000000000000000000000000000000000000800000000000000000000000000000000000000000000000000000000000001002000000000000000000000000000000000000000000000000000000000000000000010000000000000000000000000000000000000000000000000000000000000000000000000000000000000040000000000000000000000000000000000000000000000000000000000000000000",
      "type": "0x0",
      "effectiveGasPrice": "0x62e60e"
    },
    {
      "transactionHash": "0x1972ae9772ecc2b93d94c3cfc4695c12a8b41e134f049f74cee707b774ff2957",
      "transactionIndex": "0x18",
      "blockHash": "0x9ef4efa0159c745ea99e4725db53296f3597804458a8a3e64d30f605906702eb",
      "blockNumber": "0x7298d09",
      "from": "0x31D7312587D9d868d420661f4C9D7F35B9C776db",
      "to": "0xFEe6635F43E1eeff88F0A6876Dc9153Fb128a81F",
      "cumulativeGasUsed": "0x8ef848",
      "gasUsed": "0x735e",
      "contractAddress": null,
      "logs": [
        {
          "address": "0xFEe6635F43E1eeff88F0A6876Dc9153Fb128a81F",
          "topics": [
            "0xf6391f5c32d9c69d2a47ea670b442974b53935d1edc7fd64eb21e047a839171b",
            "0xfc1552b6aa2747ab03534329d86f6d3131cc2c88af7e48b6486c346619047c1a",
            "0x00000000000000000000000031d7312587d9d868d420661f4c9d7f35b9c776db",
            "0x00000000000000000000000031d7312587d9d868d420661f4c9d7f35b9c776db"
          ],
          "data": "0x",
          "blockHash": "0x9ef4efa0159c745ea99e4725db53296f3597804458a8a3e64d30f605906702eb",
          "blockNumber": "0x7298d09",
          "transactionHash": "0x1972ae9772ecc2b93d94c3cfc4695c12a8b41e134f049f74cee707b774ff2957",
          "transactionIndex": "0x18",
          "logIndex": "0x94",
          "removed": false
        }
      ],
      "status": "0x1",
      "logsBloom": "0x00000000000000000000000000000000000000000000000000000000000000000000000000000000000000000000000400200000000000000000000000000000000000000004000000000000000000000000000000000000000000000800000040000000000000000000000000000000800000000000000000000000000080000000000040000000000000000000000002000000000000000000000000000000000000000000000000000000000000000000010000001000000000000000000000000000000000000000000000000000000000000000000000000000000000000000000000000000000000010000000000000000000000000000000000000000",
      "type": "0x0",
      "effectiveGasPrice": "0x62e60e"
    },
    {
      "transactionHash": "0x0795bb0a622ac3aa47c3a1ebd7dfc91f4b4e793d3f1c66dd3b4cb2b20bc8c861",
      "transactionIndex": "0x19",
      "blockHash": "0x9ef4efa0159c745ea99e4725db53296f3597804458a8a3e64d30f605906702eb",
      "blockNumber": "0x7298d09",
      "from": "0x31D7312587D9d868d420661f4C9D7F35B9C776db",
      "to": "0xFEe6635F43E1eeff88F0A6876Dc9153Fb128a81F",
      "cumulativeGasUsed": "0x8f6ba6",
      "gasUsed": "0x735e",
      "contractAddress": null,
      "logs": [
        {
          "address": "0xFEe6635F43E1eeff88F0A6876Dc9153Fb128a81F",
          "topics": [
            "0xf6391f5c32d9c69d2a47ea670b442974b53935d1edc7fd64eb21e047a839171b",
            "0x9d1c74b92ed8239fde331a06b7a12d3e870251719cfdcf1d0885f6ece3583104",
            "0x00000000000000000000000031d7312587d9d868d420661f4c9d7f35b9c776db",
            "0x00000000000000000000000031d7312587d9d868d420661f4c9d7f35b9c776db"
          ],
          "data": "0x",
          "blockHash": "0x9ef4efa0159c745ea99e4725db53296f3597804458a8a3e64d30f605906702eb",
          "blockNumber": "0x7298d09",
          "transactionHash": "0x0795bb0a622ac3aa47c3a1ebd7dfc91f4b4e793d3f1c66dd3b4cb2b20bc8c861",
          "transactionIndex": "0x19",
          "logIndex": "0x95",
          "removed": false
        }
      ],
      "status": "0x1",
      "logsBloom": "0x00000000000000000000000020000000000000000000000000000000000000000000000000000000000000000000000000200000000000000000000000000000000000020004000000000000000000000000000000000000000000000000000040000000000000000000000000000000800000000000000000000000000080000000000040000000000000000000000002000000000000000000000000000000000000000000000000000000000000000000010000000000000000000000000000000000000000000000000000000000000000000000000000000000000000000000000000000000000000010001000000000000000000000000000000000000",
      "type": "0x0",
      "effectiveGasPrice": "0x62e60e"
    },
    {
      "transactionHash": "0x5ad1b25892559528409c3a9817823d022d43d7e70e6a789b62d69861f0d8fa65",
      "transactionIndex": "0x1a",
      "blockHash": "0x9ef4efa0159c745ea99e4725db53296f3597804458a8a3e64d30f605906702eb",
      "blockNumber": "0x7298d09",
      "from": "0x31D7312587D9d868d420661f4C9D7F35B9C776db",
      "to": "0xFEe6635F43E1eeff88F0A6876Dc9153Fb128a81F",
      "cumulativeGasUsed": "0x8fd5b4",
      "gasUsed": "0x6a0e",
      "contractAddress": null,
      "logs": [
        {
          "address": "0xFEe6635F43E1eeff88F0A6876Dc9153Fb128a81F",
          "topics": [
            "0xf6391f5c32d9c69d2a47ea670b442974b53935d1edc7fd64eb21e047a839171b",
            "0x0000000000000000000000000000000000000000000000000000000000000000",
            "0x00000000000000000000000031d7312587d9d868d420661f4c9d7f35b9c776db",
            "0x00000000000000000000000031d7312587d9d868d420661f4c9d7f35b9c776db"
          ],
          "data": "0x",
          "blockHash": "0x9ef4efa0159c745ea99e4725db53296f3597804458a8a3e64d30f605906702eb",
          "blockNumber": "0x7298d09",
          "transactionHash": "0x5ad1b25892559528409c3a9817823d022d43d7e70e6a789b62d69861f0d8fa65",
          "transactionIndex": "0x1a",
          "logIndex": "0x96",
          "removed": false
        }
      ],
      "status": "0x1",
      "logsBloom": "0x00000000000000000000000000000000000000000000000000000000000000000000000000000000000000000000000000200000000000000000000000000000000000000004000000000000000000000000000000000000000000000000000040000000020000000000000000000800800000000000000000000000000080000000000040000000000000000000000002000000000000000000000000000000000000000000000000000000000000000000010000000000000000000000000000000000000000000000000000000000000000000000000000000000000020000000000000000000000000010000000000000000000000000000000000000000",
      "type": "0x0",
      "effectiveGasPrice": "0x62e60e"
    }
  ],
  "libraries": [],
  "pending": [],
  "returns": {},
  "timestamp": 1715925967,
  "chain": 10,
  "commit": "9f28d41"
}